:020000040200F8
:10000000801C0C20450100028D1400028F14000298
:1000100093140002971400029B14000200000000D9
:100020000000000000000000000000009F1400021B
:10003000A114000200000000A3140002A514000295
:100040005F0100025F0100025F0100025F01000228
:100050005F0100025F0100025F0100025F01000218
:100060005F0100025F0100025F0100025F01000208
:100070005F0100025F0100025F0100025F010002F8
:100080005F0100025F0100025F0100025F010002E8
:100090005F0100025F0100025F0100025F010002D8
:1000A0005F0100025F0100025F0100025F010002C8
:1000B0005F0100025F0100025F0100025F010002B8
:1000C0005F0100025F0100025F0100025F010002A8
:1000D0005F0100025F0100025F0100025F01000298
:1000E0005F0100025F0100025F0100025F01000288
:1000F0005F0100025F0100025F0100025F01000278
:100100005F010002A71400025F0100025F0100020C
:100110005F0100025F0100025F0100025F01000257
:100120005F0100025F0100025F0100025F01000247
:10013000DFF80CD004F0EAFC004800474D13000241
:10014000801C0C200648804706480047FEE7FEE773
:10015000FEE7FEE7FEE7FEE7FEE7FEE7FEE7FEE777
:1001600045020002310100020CB500200190009010
:100170006B48006840F480306949086000BF6848F7
:10018000006800F4003000900198401C0190009835
:1001900018B90198B0F5A06FF1D16148006810F46A
:1001A000003F02D00120009001E000200090009864
:1001B000012842D15B48006840F0100059490860AE
:1001C0000846006820F0030008600846006840F018
:1001D000020008605248406851494860084640683B
:1001E00048600846406840F48060486008464068BF
:1001F00020F47C1048600846406840F4E8104860ED
:100200000846006840F08070086000BF44480068FD
:1002100010F0007FFAD04248406820F003004049C7
:1002200048600846406840F00200486000BF3C4813
:10023000406800F00C000828F9D10CBD10B5FFF79C
:1002400093FF10BD10B53648006840F001003449F6
:10025000086008464068344908403149486008460B
:100260000068324908402E4908600846006820F4BA
:10027000802008600846406820F4FE0048604FF483
:100280001F008860FFF7DAFF4FF000602849086020
:1002900010BD10B5002100200022214B5B6803F047
:1002A0000C0121B1042906D0082928D107E0214BEF
:1002B000214C236027E01F4B1F4C236023E0184B89
:1002C0005B6803F47010164B5B6803F48032022302
:1002D00003EB904022B9194B4343174C23600DE0C8
:1002E0000F4B5B6813F4003F04D0144B4343124C94
:1002F000236003E00F4B43430F4C236003E00D4B9F
:100300000D4C236000BF00BF054B5B68C3F30313B4
:100310000B4CE15C084B1B68CB40074C236010BDC5
:1003200000100240002002400000FFF8FFFFF6FE30
:1003300008ED00E000127A0000000C2000093D00EA
:1003400004000C2031490143314A1160704770B5F7
:10035000002100230F22C4780CB32D4C246804F430
:10036000E064C4F5E064210AC1F10403CA404478A2
:1003700004FA03F18478144021430901254C0678DE
:10038000A155047804F01F050124AC4005786D11D7
:100390004FF0E02606EB8505C5F8004109E004783A
:1003A00004F01F050124AC401B4D0678761145F87A
:1003B000264070BD194A0A400243154B1B1F1A60A4
:1003C000704739B1124A121D12680243104B1B1DAF
:1003D0001A6006E00E4A121D126882430C4B1B1D68
:1003E0001A607047042808D14FF0E021096941F0F4
:1003F00004014FF0E022116107E04FF0E0210969AC
:1004000021F004014FF0E022116170470000FA056D
:100410000CED00E000E400E080E100E080FFFF1F61
:1004200001684FF6FE7211400160002101604160D9
:100430008160C1608C49884208D18B49083949687C
:1004400041F00F01884A083A51608AE08649143128
:10045000884208D184490839496841F0F001824A4C
:10046000083A51607DE080492831884208D17E49B0
:100470000839496841F470617B4A083A516070E07C
:1004800079493C31884208D177490839496841F4B3
:100490007041754A083A516063E0734950318842AF
:1004A00008D171490839496841F470216E4A083A07
:1004B000516056E06C496431884208D16A49083974
:1004C000496841F47001684A083A516049E0664958
:1004D0007831884208D164490839496841F070612F
:1004E000614A083A51603CE06049884206D1011FE8
:1004F000096841F00F01021F116032E05B491431BD
:10050000884208D15949091F096841F0F001574A4A
:10051000121F116025E055492831884208D15349FE
:10052000091F096841F47061504A121F116018E0F8
:100530004E493C31884208D14C49091F096841F4B1
:1005400070414A4A121F11600BE0484950318842FD
:1005500007D14649091F096841F47021434A121F17
:100560001160704710B50022026847F6F0739A4395
:100570000C6A8B6823430C6923434C6923438C69C1
:100580002343CC6923434C6A23438C6A23431A4395
:100590000260CB6843600B6883604B68C36010BD2A
:1005A0000021016041608160C16001614161816140
:1005B000C161016241628162704721B1026842F00B
:1005C0000102026004E002684FF6FE731A40026006
:1005D00070471AB103680B43036002E003688B4362
:1005E00003607047416070470146486880B27047B9
:1005F00001460020002211F0805F03D01B4B083B16
:100600001A6802E0184B083B1A680A4201D0012020
:1006100000E00020704710F0805F03D01349091FED
:10062000086002E010490839486070470146002020
:10063000002211F0805F03D00C4B083B1A6802E0E7
:10064000094B083B1A680A4201D0012000E0002053
:10065000704710F0805F03D00449091F086002E072
:100660000149083948607047080002400804024008
:1006700010B50446CA48844208D10121042000F084
:1006800027FB0021042000F023FB46E0C5488442FC
:1006900008D10121082000F01BFB0021082000F0F8
:1006A00017FB3AE0C048844208D10121102000F035
:1006B0000FFB0021102000F00BFB2EE0BB48844212
:1006C00008D10121202000F003FB0021202000F0B0
:1006D000FFFA22E0B648844208D10121402000F010
:1006E000F7FA0021402000F0F3FA16E0B148844206
:1006F00008D10121802000F0EBFA0021802000F0D9
:10070000E7FA0AE0AC48844207D10121801500F0E5
:10071000DFFA0021A01500F0DBFA10BD10B50121B1
:10072000084600F0D5FA0021012000F0D1FA10BDF2
:100730002DE9F04102460025002600200023002478
:10074000002791F803C00CF00F0591F803C01CF0CE
:10075000100F03D091F802C04CEA050591F800C0D3
:10076000BCF1000F31D0146800202BE04FF0010CD9
:100770000CFA00F3B1F800C00CEA03069E4220D147
:1007800083004FF00F0C0CFA03F7BC4305FA03FC8F
:100790004CEA040491F803C0BCF1280F06D14FF0D5
:1007A000010C0CFA00FCC2F814C00AE091F803C076
:1007B000BCF1480F05D14FF0010C0CFA00FCC2F857
:1007C00010C0401C0828D1D31460B1F800C0BCF19F
:1007D000FF0F34DD546800202EE000F1080C4FF0CC
:1007E000010808FA0CF3B1F800C00CEA03069E42B7
:1007F00021D183004FF00F0C0CFA03F7BC4305FA2C
:1008000003FC4CEA040491F803C0BCF1280F05D1A5
:1008100000F1080C08FA0CF8C2F8148091F803C033
:10082000BCF1480F07D100F1080C4FF0010808FA9D
:100830000CF8C2F81080401C0828CED35460BDE8E4
:10084000F0814FF6FF710180022181700421C17097
:1008500070470246002093680B4201D0012000E05F
:10086000002070470146886880B270470246002029
:10087000D3680B4201D0012000E000207047014600
:10088000C86880B2704701617047416170470AB122
:10089000016100E041617047C16070474FF48032F0
:1008A0000A4382618161826182698269704702467E
:1008B0000020424B18684FF68073184040EA02103F
:1008C00008433E4B186070473D49C8617047F0B51A
:1008D0000A46002300240021002500F00046B6F15E
:1008E000004F02D1354EF16901E0344E7168C0F31A
:1008F000034583B200F44016B6F5401F08D121F03D
:1009000070612E4E766826F070662C4F7E6012E085
:1009100000F48016B6F5801F06D1032606FA05F40A
:10092000A14341F0706106E0460D360103FA06F678
:10093000B14341F0706122B1460D360103FA06F66B
:10094000314300F00046B6F1004F02D11B4EF16179
:1009500001E01A4E7160F0BD30B500228B071C0F0C
:100960000F2303FA04F2154B08338C1053F824308C
:100970009343124C08348D1044F8253023468C10D4
:1009800053F824308C07240F00FA04F423430B4C53
:1009900008348D1044F8253030BD0A49086070478E
:1009A00000080140000C014000100140001401400B
:1009B00000180140001C01400020014000000140DF
:1009C00000002042DC002042DD48006840F00100C9
:1009D000DB49086008464068DA490840D849486061
:1009E00008460068D8490840D549086008460068AC
:1009F00020F4802008600846406820F4FE0048602B
:100A00004FF41F0088607047CD49096821F4803198
:100A1000CB4A11601146096821F480211160B0F5BC
:100A2000803F03D0B0F5802F0ED106E0C44909689D
:100A300041F48031C24A116007E0C149096841F4BC
:100A4000A021BF4A116000E000BF00BF704710B591
:100A500001460022002300204A11012A02D1B84C8D
:100A6000236806E0022A02D1B54C236A01E0B44CA7
:100A7000636A01F01F02012494401C4201D001204E
:100A800000E0002010BD38B50020009000240025B3
:100A900000BF3120FFF7DBFF05460098401C0090A7
:100AA0000098B0F5A06F01D0002DF2D03120FFF7F3
:100AB000CEFF08B1012400E00024204638BD0146E5
:100AC00000209F4A106820F0F80040EAC100106042
:100AD00070479E490860704702460020984B58684E
:100AE00020F47C1042EA01031843954B586070478C
:100AF00096490866704701460020914A506820F0E8
:100B000003000843506070478D48406800F00C00B7
:100B10007047014600208A4A506820F0F0000843E0
:100B20005060704701460020854A506820F4E0601C
:100B300008435060704701460020814A506820F405
:100B4000605040EAC1005060704729B17C4A527A37
:100B500002437B4B5A7204E0794A527A8243784BC3
:100B60005A7270477A490860704701460020744AFB
:100B7000506820F440400843506070470021754A97
:100B800011706F4A82F82010012802D0042808D181
:100B900003E001216F4A117004E005216D4A1170D4
:100BA00000E000BF00BF70476B49086070476449B0
:100BB000096A0143624A1162704767494439086013
:100BC000704730B500210022002400235C4D6D6881
:100BD00005F00C0121B1042905D0082923D105E035
:100BE0005E4D056022E05D4D05601FE0544D6D686F
:100BF00005F47012524D6D6805F48034022505EB42
:100C000092421CB9564D554305600BE04C4D6D6842
:100C100015F4003F03D0524D5543056002E04F4D9F
:100C20005543056002E04D4D056000BF00BF444DD7
:100C30006D6805F0F00109094A4D6B5C0568DD40FF
:100C400045603F4D6D6805F4E061090A454D6B5CF8
:100C50004568DD4085603A4D6D6805F46051C90A0C
:100C6000404D6B5C4568DD40C560354D6D6805F4F1
:100C70004041890B3C4D6B5CC568B5FBF3F50561E4
:100C800030BD29B12E4A526902432D4B5A6104E00E
:100C90002B4A526982432A4B5A61704729B1284A2C
:100CA00092690243264B9A6104E0254A9269824385
:100CB000234B9A61704729B1214AD2690243204BE4
:100CC000DA6104E01E4AD26982431D4BDA61704743
:100CD00029B11B4AD2680243194BDA6004E0184A72
:100CE000D2688243164BDA60704729B1144A126900
:100CF0000243134B1A6104E0114A12698243104BFC
:100D00001A61704714494039086070470F49C86438
:100D100070470B49C87170470948406A40F08070BD
:100D200007494862704701460020054A92680A4216
:100D300001D0012000E0002070470149887270470F
:100D4000001002400000FFF8FFFFF6FE00004242E4
:100D5000D8004242201002408004424200127A0031
:100D600000093D0014000C2024000C2000206C49D8
:100D7000086048608860C86048628862C8626948E4
:100D800088630020C86370470021654A516847F6B0
:100D9000FF629143027D83681A4343681A43C36824
:100DA0001A4303681A4303691A4311435C4A5160AA
:100DB000704700210175016041608160C16001617F
:100DC00070475949086070475549096821F0030187
:100DD000534A116011460968014311607047504839
:100DE000006800F00300704729B14D4AD26B0243FE
:100DF0004B4BDA6304E04A4AD26B8243484BDA63D6
:100E000070474A49086070470021454B02689A6064
:100E10001A46D1686FF30A01D0E901231A43C36867
:100E20001A4303691A4311433D4AD16070470021B8
:100E3000016041608160C1600161704738480069AC
:100E4000C0B2704708B50146002000903448143005
:100E5000084400900098006808BD0021304B0268EB
:100E60005A6242689A621A46D16A21F0F701D0E9C3
:100E700002231A4303691A4343691A431143284A58
:100E8000D16270474FF0FF31016000214160816005
:100E9000C1600161416170472148006B704724487F
:100EA000006870472249086070471D48806C704791
:100EB0001E491431086070471C491831086070479A
:100EC0001A491C3108607047184920310860704782
:100ED000184908607047184908607047012181432C
:100EE000164A116070471649086070470146002095
:100EF0000B4A526B0A4201D0012000E000207047EB
:100F000007498863704701460020054A526B0A4230
:100F100001D0012000E0002070470149886370473C
:100F200000800140FF07C000A00030428C05304225
:100F300080800140AC013042B0013042B401304207
:100F4000B801304210B50446FB48844209D1012162
:100F50008803FFF7BDFE00214FF48040FFF7B8FE85
:100F600032E0F648844209D101214804FFF7BDFE72
:100F700000214FF40030FFF7B8FE25E0F04884422E
:100F800009D101218804FFF7B0FE00214FF4802031
:100F9000FFF7ABFE18E0EB48844209D10121C804F9
:100FA000FFF7A3FE00214FF40020FFF79EFE0BE0A9
:100FB000E548844208D101210805FFF796FE00218B
:100FC0004FF48010FFF791FE10BD2DE9F04786B079
:100FD00005460E460024A24600BFA1460027B08960
:100FE00000B100BF2F462C8A4CF6FF700440F088F9
:100FF00004432C82AC894EF6F3100440B08831894A
:101000000843718908430443AC81AC8A4FF6FF4022
:101010000440B0890443AC8201A8FFF7D2FDC64862
:10102000874202D1DDF810A001E0DDF80CA0A8890C
:1010300010F4004F08D00AEBCA0000EB0A10316828
:101040004900B0FBF1F807E00AEBCA0000EB0A1018
:1010500031688900B0FBF1F86420B8FBF0F00401BE
:101060002009642101FB1089A88910F4004F08D0E1
:10107000322000EBC900B0FBF1F000F007000443A0
:1010800008E0322000EB09106421B0FBF1F000F021
:101090000F0004432C8106B0BDE8F0874FF41651D1
:1010A000016000218180C18001810C2141810021EA
:1010B0008181704710B502460020108A4FF2FF036D
:1010C00018400B884C8823438C882343CC882343C7
:1010D0001843108210BD0021018041808180C180B1
:1010E000704721B1828942F40052828104E08289F2
:1010F0004DF6FF731A4082817047F0B50346002415
:10110000002600250020A1F510676A3F00D100BF2E
:101110001846C1F3421401F01F06012707FA06F52D
:10112000012C01D10C3004E0022C01D1103000E080
:1011300014301AB107682F43076002E00768AF4315
:101140000760F0BD1AB1838A0B43838202E0838A71
:101150008B4383827047028A4FF6F0731A400282F3
:10116000028A0A430282704782894FF2FF731A4053
:10117000828182890A438281704721B1828942F04B
:101180000202828104E082894FF6FD731A40828157
:101190007047028A4FF6DF731A400282028A0A43BE
:1011A0000282704721B1028A42F48042028204E046
:1011B000028A4BF6FF731A4002827047C1F308029D
:1011C0008280704701468888C0F308007047818993
:1011D00041F0010181817047028BD2B20283028B00
:1011E00042EA012202837047028B02F47F420283AB
:1011F000028B0A430283704721B1828A42F02002A7
:10120000828204E0828A4FF6DF731A40828270473E
:1012100021B1828A42F01002828204E0828A4FF673
:10122000EF731A408282704721B1828A42F008022D
:10123000828204E0828A4FF6F7731A4082827047F6
:1012400021B1828942F40042828103E08289C2F3A3
:101250000E028281704721B1828A42F4006282824A
:1012600004E0828A4FF2FF731A4082827047828ABA
:101270004FF6FB731A408282828A0A438282704749
:1012800021B1828A42F00202828204E0828A4FF611
:10129000FD731A408282704702460020B1F5007F3C
:1012A00000D100BF13880B4201D0012000E00020D4
:1012B000704701F40072B2F5007F00D100BFCA434D
:1012C0000280704770B502460024002300250020EC
:1012D000A1F510666A3E00D100BFC1F3421501F0CE
:1012E0001F03012606FA03F3012D02D1968933402C
:1012F00006E0022D02D1168A334001E0968A33407F
:101300000C12012606FA04F41688344013B10CB10D
:10131000012000E0002070BD10B500220023A1F5DF
:1013200010646A3C00D100BF0A1201249440A3B2A9
:10133000DC43048010BD0000003801400044004040
:1013400000480040004C00400050004000F0B0F861
:101350002EA003F0EDFB00F026F93449002002F046
:1013600010FF0A2232A1364802F028FF35490870E2
:101370000846007850B9344B48223449304803F0CD
:10138000BAF8304908702E4803F016FA012228A155
:101390002B4802F013FF2B4908702D4B4FF480525D
:1013A0002C49274802F0C2FF2649087029492AA083
:1013B00003F0BEFB224803F0FFF92949294803F056
:1013C000DEFAE8B928A003F0B3FB12E02A488069EE
:1013D000007820B92848093008B127498861264893
:1013E0008069007800B90AE02348816923A003F0EE
:1013F0009FFB21491B4803F0FDFA0028E6D000BFFF
:101400000021084602F0BDFE00BFFEE70D0A207471
:101410006869732069732061206661746673207443
:101420006573742064656D6F200D0A0024130C2011
:10143000303A6E657766696C652E747874000000CA
:1014400000110C2072000C2078000C2028000C20C9
:1014500074000C209C000C200D0A20257320000035
:101460009C100C2098170C20200D0A2046525F4F2C
:101470004B200D0A0000000078170C20200D0A20D8
:101480003F3F3F3F3A202573200D0A00704700BFC1
:10149000FEE700BFFEE700BFFEE700BFFEE77047C4
:1014A00070477047704710B501F067FB10BD000032
:1014B00000B585B0012144F20400FFF7EFFB4FF4C3
:1014C0000070ADF8100018208DF8130003208DF87F
:1014D000120004A92148FFF72BF94FF48060ADF802
:1014E000100004208DF8130004A91C48FFF720F910
:1014F0004FF4E13000900020ADF80400ADF8060094
:10150000ADF80800ADF80C000C20ADF80A006946F3
:101510001348FFF75AFD01211148FFF7E2FD05B01E
:1015200000BD70B504460D46E1B20D48FFF746FE1A
:1015300000BF80210A48FFF7AFFE0028F9D02046FF
:1015400070BD10B5044600BF20210548FFF7A4FE7A
:101550000028F9D00248FFF735FE10BD0008014011
:101560000038014008B50020FFF72BFC0020FFF7F2
:101570002BFCFFF7FBFB00214FF48060FFF781FBA2
:101580004FF4F850ADF8000004208DF803006946D0
:10159000FB48FFF7CDF80420ADF800006946F94894
:1015A000FFF7C6F808BD08B54FF4C060FEF7CAFEE5
:1015B00031208DF8000000208DF801008DF8020028
:1015C00001208DF803006846FEF7C1FE08BD10B586
:1015D000ED48FFF70DF810BD30B58BB005460C4651
:1015E000EA48FFF718F80021E948FEF7E6FFE94866
:1015F0000090019500200290A00803900020049024
:1016000080200590800006908000079000200890C0
:101610004FF40050099000200A906946DC48FEF71C
:10162000A1FF0121DA48FEF7C8FF0BB030BD30B58D
:101630008BB005460C46D548FEF7EDFF0021D44897
:10164000FEF7BBFFD3480090019510200290A00840
:101650000390002004908020059080000690800078
:101660000790002008904FF40050099000200A9045
:101670006946C748FEF776FF0121C548FEF79DFF82
:101680000BB030BD08B501213020FFF707FB4FF448
:10169000F850ADF8000003208DF8020018208DF8F6
:1016A00003006946B648FFF743F80420ADF8000090
:1016B0006946B448FFF73CF801218802FFF7E1FAD8
:1016C00001210220FFF7DDFA08BD014600BFB14845
:1016D0008038406B10F0450FF9D040F2FF50AD4A12
:1016E000803A90631046406908221040C0B27047AB
:1016F0002DE9FC4107460D460026002400200090FD
:1017000001900820A44908601020486040208860AB
:101710000020C8604FF4806008610846FFF774FB42
:101720001020FFF7D2FF044614B12046BDE8FC812B
:101730009A48008800049849086037204860402093
:1017400088600020C8604FF4806008610846FFF799
:101750005BFB3720FFF7B9FF04460CB12046E5E7F5
:101760004FF0FF308E4908600820486030208860C4
:101770000220C86000200861012048610846FFF788
:101780006CFB00208449086033204860402088605A
:101790000020C8604FF4806008610846FFF734FB02
:1017A0003320FFF792FF04460CB12046BEE70CE061
:1017B0004FF40010FFF79AFB38B1FFF770FB4DF8BC
:1017C0002600761C012E00D906E072488038406B56
:1017D00040F22A610842EBD000BF0820FFF786FBE9
:1017E00028B10820FFF78CFB042420469EE7022046
:1017F000FFF77CFB28B10220FFF782FB0224204682
:1018000094E72020FFF772FB28B12020FFF778FB38
:10181000062420468AE74FF40070FFF767FB30B1DB
:101820004FF40070FFF76CFB072420467EE740F280
:10183000FF50FFF765FB00980006009901F47F4117
:1018400040EA0120009901F47F0140EA112000994B
:1018500040EA1160686001980006019901F47F4137
:1018600040EA0120019901F47F0140EA1120019929
:1018700040EA11602860204658E77CB50546002400
:10188000002000900190FFF7DDFA10F0007F02D0F9
:101890000E2420467CBD4149098888B26946FFF77D
:1018A00027FF04460CB12046F4E7012D35D10198FD
:1018B00010F4802F2ED03948008800043649086083
:1018C00037204860402088600020C860A802086176
:1018D0000846FFF799FA3720FFF7F7FE04460CB1E8
:1018E0002046D7E702202C490860062048604020A7
:1018F00088600020C8604FF4806008610846FFF7E8
:1019000083FA0620FFF7E1FE04460CB12046C1E74A
:101910002046BFE725242046BCE7019810F4803F0D
:1019200042D01E48008800041B49086037204860E8
:10193000402088600020C8604FF48060086108463D
:10194000FFF762FA3720FFF7C0FE04460CB12046CD
:10195000A0E7002010490860062048604020886009
:101960000020C8604FF4806008610846FFF74CFA19
:101970000620FFF7AAFE0446A4B120468AE700002D
:1019800000100140001401400020001000F0001081
:10199000440402408080014054180C2080000C2038
:1019A00068180C20204675E72524204672E770B59C
:1019B00004460025F7480068032802D12725284659
:1019C00070BDF448006838B1F2480068012803D0BF
:1019D000F048006802282ED1B4F5805F02D1272597
:1019E0002846EDE7B4F5006F14D10120FFF745FF5D
:1019F000054605BB0120E8490875002008604860DD
:101A000088604FF40060C860002008610846FFF756
:101A1000BBF910E00020FFF730FF05465DB901205B
:101A2000DD4908750020086048608860C86008616A
:101A30000846FFF7A9F92846C2E770B50446002515
:101A4000D64804600720D5494860402088600020BF
:101A5000C8604FF4806008610846FFF7D5F9072099
:101A6000FFF733FE0546284670BD30B5014600201D
:101A70000022C84B1B7881F84E30C94B1B88A1F857
:101A80004C30C84B1B681A0E93090B70C2F38303CA
:101A90004B7002F003038B70C24B1B68C3F3074209
:101AA000CA70C04B1B88C3F307220A71BD4B1A785A
:101AB0004A715B681A0E1301CB80BA4B5B68C3F3A3
:101AC0000742CB8843EA1213CB8002F00F030B725C
:101AD000B44B9B88C3F30722D3094B72C2F3801324
:101AE0008B72C2F34013CB72C2F300130B7300234B
:101AF0004B73A84B1B681BB1A64B1B68012B3CD139
:101B000093071B0D0B61A74B1A790B6943EA8203FC
:101B10000B61A44B9B681A0E0B6943EA92130B618D
:101B2000C2F3C2030B7502F007034B759D4B9B6814
:101B3000C3F3074253098B75C2F38203CB75930736
:101B40005B0F0B76974B1B89C3F307220B7E43EA8F
:101B5000D2130B760B695B1C4B640C7E4B6CA41C84
:101B60000125A5406B434B640C7A0123A3408B6491
:101B7000D1E9113463434B6421E0864B1B68022B8F
:101B80001DD1884B1A7993069B0A0B61854B9B6884
:101B90001A0E0B6943EA02230B61824B9B68C3F365
:101BA00007420B6913430B617E4B1B89C3F307226A
:101BB0000B695B1CDB044B644FF400738B64C2F352
:101BC000801301F8193F93065B0E4B70754B1A7A20
:101BD0004B7843EAD2134B7002F07F038B70714B4A
:101BE000DB681A0ED309CB70C2F341130B71C2F339
:101BF00082034B7193071B0F8B716A4BDB68C3F336
:101C000007428B7943EA92138B71C2F34013CB7175
:101C100000230B7202F001034B72624B9B89C3F3EA
:101C20000722D3098B72C2F38013CB72C2F3401325
:101C30000B73C2F300134B73C2F381038B7302F077
:101C40000303CB73574B1A7B53080B7401234B745C
:101C5000554B1B681A0ECA74A1F11901524B1B682F
:101C6000C3F307424FEA0224CC854F4B1B88C3F3D2
:101C70000722CB8D43EA0203CB854B4B1A784FEA00
:101C800002640C635B684FEA13620B6B43EA024425
:101C90000C63454B5B68C3F307420B6B43EA0224BA
:101CA0000C63414B9B88C3F307220B6B43EA02038F
:101CB0000B633D4B1A794FF034035A543A4B9B68EF
:101CC0004FEA13624FF035035A54374B9B68C3F306
:101CD00007424FEA02648C63334B1B89C3F307222C
:101CE0008B6B43EA02448C632F4B1A7A8B6B43EA6B
:101CF00002248C632C4BDB684FEA13628B6B43EA44
:101D000002038B63284BDB68C3F307424FF03C03AD
:101D10005B5C43EA12144FF03C035C544FEA0273DD
:101D20004FEA1354CC87204B9B89C3F30722CB8FF8
:101D300043EA0203CB871C4B1A7B4FEA52044FF055
:101D400040035C544FF001044FF041035C5430BD3C
:101D500070B500251548446B01E01448446B14F03D
:101D6000450FFAD014F0040F05D003250420FFF727
:101D7000C7F8284670BD14F0010F05D001250120D9
:101D8000FFF7BEF82846F5E740F2FF50FFF7B8F836
:101D90002846EFE77C000C203C180C2054180C203F
:101DA00080000C20BC170C20CC170C2000800140B8
:101DB0002DE9F04106460F464FF00008F848456B04
:101DC00001E0F748456B15F0450FFAD015F0040F08
:101DD00007D04FF003080420FFF792F84046BDE813
:101DE000F08115F0010F06D04FF001080120FFF738
:101DF00087F84046F3E7FFF721F8B04203D04FF0F1
:101E000010084046EBE740F2FF50FFF779F800205A
:101E1000FFF718F8044614F4604F03D1200C388003
:101E20004046DCE714F4005F01D01320D7E714F438
:101E3000804F01D01020D2E714F4004F01D00F20C2
:101E4000CDE74046CBE738B5002401200090FEF7EF
:101E5000C6FF10B92524204638BDD24800680428A2
:101E600028D00020D049086002204860C020886047
:101E70000020C8604FF4806008610846FEF7C4FF88
:101E8000FFF766FF04460CB12046E5E70020FEF7A9
:101E9000D9FFC64908600420FEF7D4FFC349486053
:101EA0000820FEF7CFFFC14988600C20FEF7CAFF6B
:101EB000BE49C860BB48006858B1BA4800680128EC
:101EC00007D0B8480068062803D0B6480068022842
:101ED00016D10020B4490860032048604020886083
:101EE0000020C8604FF4806008610846FEF78CFF50
:101EF00069460320FFF75CFF04460CB12046ABE7C0
:101F0000A848006804282ED0BDF80000A849086041
:101F1000BDF800000004A449086009204860C02002
:101F200088600020C8604FF4806008610846FEF7B2
:101F30006BFFFFF70DFF04460CB120468CE7002035
:101F4000FEF780FF9B4908600420FEF77BFF99495C
:101F500048600820FEF776FF964988600C20FEF75F
:101F600071FF9449C8600024204675E770B50025CC
:101F70008B48446B01E08A48446B14F0450FFAD05B
:101F800014F0040F05D003250420FEF7B9FF2846FE
:101F900070BD40F2FF50FEF7B3FF2846F8E770B57A
:101FA00000264FF480357E48446B02E06D1E7C486D
:101FB000446B14F0450F01D1002DF7D115B114F089
:101FC000040F05D003260420FEF79AFF304670BDAB
:101FD00014F0400F05D000264020FEF791FF304658
:101FE000F5E73046F3E770B500254FF4803400E0A4
:101FF000641E24B18020FEF779FF0028F8D014B9C0
:102000000325284670BD40F2FF50FEF779FF2846B1
:10201000F8E72DE9F0410024002600250027A0461E
:10202000B220654908750020086048608860C86073
:1020300008610846FEF7A8FE0320FEF7C5FE012052
:10204000FEF7BFFE00205849086048608860C860FD
:102050004FF4806008610846FEF7D6FEFFF7C3FF25
:10206000044614B12046BDE8F0814FF4D5704E49C6
:10207000086008204860402088600020C8604FF455
:10208000806008610846FEF7BFFEFFF788FF044640
:102090002CB90120434908604FF0804812E000202D
:1020A0004149086037204860402088600020C860AF
:1020B0004FF4806008610846FEF7A6FE3720FFF760
:1020C00004FB04460020384908603720486040205F
:1020D00088600020C8604FF4806008610846FEF701
:1020E00093FE3720FFF7F1FA0446002C4AD136E080
:1020F00000202D490860372048604020886000207B
:10210000C8604FF4806008610846FEF77DFE372006
:10211000FFF7DBFA04460CB12046A4E7274848EA5B
:102120000000214908602920486040208860002084
:10213000C8604FF4806008610846FEF765FEFFF74F
:1021400015FF04460CB120468DE70020FEF77AFE0D
:102150000646012080EAD67080F001076D1C1FB989
:102160004FF6FF708542C3D34FF6FF70854202D30E
:102170001B24204677E706F08040060002D00220AC
:102180000849086020466EE710B50024FFF77AFA88
:10219000FEF7ECFDFFF73DFF04468CB1204610BD75
:1021A000008001407C000C2054180C20CC170C201F
:1021B00080000C20BC170C203C180C200000108064
:1021C000FFF741FE04460CB12046E8E70120FE4936
:1021D00008750020086048608860C860086108468B
:1021E000FEF7D2FD1CB9F948FFF73FFC044634B9AD
:1021F000F649B1F84C100804FFF71FFC044624B957
:102200004FF40060FFF7D3FB04462046C7E770B5E4
:1022100004460025EE4800880004EE49886040F23C
:102220004D40C8600D20FFF750FA05460DB1284615
:1022300070BDE848406920602846F9E708B50020ED
:1022400000906846FFF7E3FF08B1FF2008BD009843
:10225000C0F34320FAE710B50424FFF7EFFF04466C
:10226000042C01D1002010BDFF2C01D10220FAE77F
:102270000120F8E710B500240020FEF7A5FD204658
:1022800010BD70B50446002500260020FEF7DAFDDB
:1022900010F0007F02D00E25284670BD4020CE49A8
:1022A000086010204860402088600020C8604FF41B
:1022B000806008610846FEF7A7FD1020FFF705FAC9
:1022C00005460DB12846E8E7C14800880004C24928
:1022D000086037204860402088600020C8604FF4C4
:1022E000806008610846FEF78FFD3720FFF7EDF9A3
:1022F00005460DB12846D0E74FF0FF30B7490860DA
:1023000040204860602088600220C860002008618A
:10231000012048610846FEF7A0FD0020AE49086094
:102320000D204860402088600020C8604FF4806025
:1023300008610846FEF768FD0D20FFF7C6F905465F
:102340000DB12846A9E70EE04FF40040FEF7CEFDA0
:1023500048B1002604E0FEF7A2FD44F82600761CF2
:10236000082EF8D320349B48406B40F22A61084283
:10237000EAD00820FEF7BAFD28B10820FEF7C0FD1C
:102380000425284689E70220FEF7B0FD28B1022087
:10239000FEF7B6FD022528467FE72020FEF7A6FDC2
:1023A00028B12020FEF7ACFD0625284675E74FF43E
:1023B0000070FEF79BFD30B14FF40070FEF7A0FDFA
:1023C0000725284669E703E0FEF769FD2060241D24
:1023D0004FF40010FEF78AFD0028F5D140F2FF50BF
:1023E000FEF78EFD284658E770B504460026002506
:1023F0007B48FFF746FF06460EB1304670BD784871
:1024000000788509257076480078C0F3401565701E
:1024100073488578280260807148C57860882843B1
:1024200060806F480579280660606D48457960686E
:1024300040EA054060606A488579606840EA0520A6
:1024400060606748C5796068284360606448057AC1
:102450002572457A6572807A0509A5726048C57A49
:102460002802A0815E48057BA0892843A0815C48A2
:10247000407B8508A5735A48407B00F00305E5734F
:102480003046BBE72DE9F04107460D4614460026CD
:1024900000205449087054490860544908604D4967
:1024A000C86253480068022801D104026D0A4A48F4
:1024B0000460102048494860402088600020C860BF
:1024C0004FF4806008610846FEF79EFC1020FFF77D
:1024D000FCF8064616B13046BDE8F0814FF0FF30FB
:1024E0003E49086008464460902088600220C86029
:1024F00000200861012048610846FEF7AEFC36481E
:102500000560112034494860402088600020C86080
:102510004FF4806008610846FEF776FC1120FFF753
:10252000D4F806460EB13046D6E701210802FEF780
:102530005BFC0120FEF765FC21463846FFF74CF8AE
:102540003046C9E72DE9F04180460D4614461E4647
:1025500000270020234908702349086001202349EF
:10256000086000201B49C86221480068022801D188
:1025700004026D0A18480460102017494860402082
:1025800088600020C8604FF4806008610846FEF74C
:102590003BFC1020FFF799F8074617B13846BDE815
:1025A000F0814FF0FF300D49086006FB04F04860F1
:1025B000902088600220C8600020086101204861E6
:1025C0000846FEF74AFC15E03C180C20EC170C20DE
:1025D00080000C200080014054180C2068180C204A
:1025E000DC170C2088000C208C000C2084000C20B0
:1025F0007C000C20F94805601220F8494860402012
:1026000088600020C8604FF4806008610846FEF7CB
:10261000FBFB1220FFF759F807460FB13846BEE71B
:1026200001210802FEF7E0FB0120FEF7EAFB06FBB2
:1026300004F14046FEF7D0FF3846B0E710B500245D
:1026400000BFFEF7C4FF30B9E548006818B9E54897
:1026500000780028F5D0E348007810B1E148007810
:1026600010BD2046FCE72DE9F04107460D46144613
:1026700000260020DB490870D9490860DA49086063
:10268000DA49C862DA480068022801D104026D0AFA
:10269000D24804601020D149486040208860002062
:1026A000C8604FF4806008610846FEF7ADFB10205B
:1026B000FFF70BF8064616B13046BDE8F081C74873
:1026C00005601820C5494860402088600020C86027
:1026D0004FF4806008610846FEF796FB1820FEF76D
:1026E000F4FF06460EB13046E7E74FF0FF30C14930
:1026F000086008464460902088600020C860086137
:10270000012048610846FEF7A8FB01210802FEF7F8
:102710006BFB21463846FEF78AFF0120FEF771FB6E
:102720003046CAE72DE9F84380460F4615461E4657
:10273000002400200090AB490870A94908600120DE
:10274000A94908600020A949C862A9480068022870
:1027500001D105027F0AA148056010209F49486009
:10276000402088600020C8604FF4806008610846FF
:10277000FEF74AFB1020FEF7A8FF044614B12046DE
:10278000BDE8F8839C48008800049449086037201D
:102790004860402088600020C8604FF48060086175
:1027A0000846FEF731FB3720FEF78FFF04460CB1D9
:1027B0002046E5E7894806601720884948604020A0
:1027C00088600020C8604FF4806008610846FEF70A
:1027D0001BFB1720FEF779FF04460CB12046CFE71C
:1027E0007E48076019207D494860402088600020AD
:1027F000C8604FF4806008610846FEF705FB1920A9
:10280000FEF763FF04460CB12046B9E74FF0FF30F6
:102810007849086006FB05F0486090208860002039
:10282000C8600861012048610846FEF716FB0121D7
:102830000802FEF7D9FA0120FEF7E3FA06FB05F1DC
:102840004046FEF7F4FE20469AE710B5002400BF8C
:10285000FEF7BDFE30B96248006818B961480078DB
:102860000028F5D05F48007810B15E48007810BDB0
:1028700040F2FF50FEF744FB2046F8E75B48406B10
:1028800010F4405F01D0012070470020FCE710B534
:10289000002400205549886040F24C40C8600C205C
:1028A000FEF713FF0446204610BD7CB50446002504
:1028B00000200190009050480088000447490860BB
:1028C0000D204860402088600020C8604FF4806080
:1028D00008610846FEF798FA4448406B009002E011
:1028E0004248406B0090009810F0450FF8D00098D7
:1028F00010F0040F05D003250420FEF701FB284645
:102900007CBD009810F0010F05D001250120FEF7D5
:10291000F7FA2846F4E7FEF791FA009000980D28A0
:1029200002D010252846EBE740F2FF50FEF7E8FA08
:102930000020FEF787FA01900198C0F34320207031
:102940002E490198084201D12846D9E7019810F094
:10295000004F01D01C20D3E7019810F0804F01D028
:102960000920CDE7019810F0005F01D00A20C7E7E9
:10297000019810F0805F01D00B20C1E7019810F0A2
:10298000006F01D00C20BBE7019810F0806F01D0E0
:102990000D20B5E7019810F0807F01D00E20AFE741
:1029A000019810F4000F01D00F20A9E7019810F44E
:1029B000800F01D01020A3E7019810F4001F01D070
:1029C00011209DE7019810F4801F01D0122097E795
:1029D000019810F4002F13D0132091E754180C2005
:1029E0008C000C2088000C2084000C20008001400A
:1029F0007C000C2068180C2080000C2008E0FFFDF3
:102A0000019810F4802F01D0142079E7019810F478
:102A1000003F01D0152073E7019810F4803F01D0EA
:102A200016206DE7019810F4004F01D0172067E7DA
:102A3000019810F4804F01D0182061E7019810F43C
:102A4000005F01D019205BE7019810F0080F01D05A
:102A50001A2055E7284653E72DE9FC4105460E4666
:102A6000002400270020019000905A48406820214F
:102A700011EA105F03D125242046BDE8FC815648A9
:102A80004068C0B2801C5549B1FBF0F001900020B5
:102A9000FEF7D8F910F0007F02D00E242046ECE7B4
:102AA0004F480068022801D16D0A760A4C48006838
:102AB00038B14B480068012803D049480068022813
:102AC0002BD1484805602020464948604020886056
:102AD0000020C8604FF4806008610846FEF794F952
:102AE0002020FEF7F2FD04460CB12046C5E73D4824
:102AF000066021203B494860402088600020C86073
:102B00004FF4806008610846FEF77EF92120FEF749
:102B1000DCFD04460CB12046AFE7002031490860D7
:102B200026204860402088600020C8604FF4806004
:102B300008610846FEF768F92620FEF7C6FD044640
:102B40000CB1204699E7002700E07F1C01988742DE
:102B5000FBD36846FFF7A9FE044603E06846FFF78B
:102B6000A4FE04463CB99DF800000728F6D09DF865
:102B700000000628F2D020467FE710B51A4800680A
:102B800001280BD100201449886040F24C40C860F5
:102B90000C20FEF79AFD1549087002E00020134949
:102BA00008704FF48070FEF7B8F900214FF4807080
:102BB000FEF71AF901200E4908600C48007810BD94
:102BC0000146002002E04910421CD0B20129FAD18E
:102BD00070470000BC170C2000800140C0D40100E9
:102BE0007C000C2054180C2084000C2088000C2041
:102BF0008C000C2070B505460DB1012070BDFFF7AB
:102C0000C3FA04460CB10120F8E70020F6E70146BC
:102C1000002070472DE9F04107460D4614461E4638
:102C2000012E0EDD610233464FF400722846FFF795
:102C300089FCFFF703FD00BFFFF70DFB0028FBD168
:102C40000CE061024FF400722846FFF71BFCFFF70F
:102C5000F5FC00BFFFF7FFFA0028FBD10020BDE81C
:102C6000F0812DE9F04107460D4614461E46012E1F
:102C70000EDD610233464FF400722846FFF752FD25
:102C8000FFF7E3FD00BFFFF7E6FA0028FBD10CE0F9
:102C900061024FF400722846FFF7E5FCFFF7D5FD0F
:102CA00000BFFFF7D8FA0028FBD10020BDE8F08173
:102CB00003460020704700207047000070B50346AF
:102CC0000C4603E014F8015B03F8015B1500A2F168
:102CD0000102F7D170BD30B5034601E003F8011BD6
:102CE0001400A2F10102F9D130BDF0B503461C4633
:102CF0000D46002000BF1600A2F1010207D014F813
:102D0000017B15F801CBA7EB0C063000F3D0F0BD2A
:102D1000024600E0521C107810B110788842F9D1B8
:102D2000107870472DE9F04104460D46E66AAE4240
:102D30002FD0207908B360780123324604F13001A6
:102D4000FFF78FFF10B10120BDE8F0810020207156
:102D5000D4E907100844B0420FD9E7780AE0E069E7
:102D6000064460780123324604F13001FFF779FF11
:102D7000781EC7B2012FF2DC00BF55B16078012385
:102D80002A4604F13001FFF745FF08B10120DBE7D7
:102D9000E5620020D8E770B5044600212046FFF721
:102DA000C1FF0546002D59D1207803284FD1607905
:102DB00000284CD00020E0624FF40072002104F1A2
:102DC0003000FFF788FF552184F82E12AA2184F8DD
:102DD0002F12522084F830005221312001556121F8
:102DE00032200155412133200155722184F81412FB
:102DF00084F81512412184F81612612184F8171203
:102E0000217C84F81812208A010A84F8191220699A
:102E1000010C84F81A122069010E84F81B12217B20
:102E200084F81C12A089010A84F81D12E068010CC4
:102E300084F81E12E068010E84F81F1260780123E6
:102E400004F130016269FFF70CFF002060716078C7
:102E500000221146FFF72CFF00B10125284670BD66
:102E60000246891E9069801E884201D80020704762
:102E70009378906A01FB0300F9E72DE9F0410546DC
:102E80000C46022C02D3A869A04202D80120BDE85A
:102E9000F0812878012804D002282CD003285AD1A8
:102EA0003DE0274607EB5707286A00EB57212846E5
:102EB000FFF738FF00B14EE0C7F3080105F130001D
:102EC00010F801807F1C286A00EB57212846FFF785
:102ED00029FF00B13FE0C7F3080105F13000405C75
:102EE00048EA002814F0010F02D04FEA1810CEE78C
:102EF000C8F30B00CBE7286A00EB14212846FFF744
:102F000011FF00B127E040F2FF1000EA440105F193
:102F100030000E183078717840EA0120B7E7286A4F
:102F200000EBD4112846FFF7FDFE00B113E040F29C
:102F3000FF1000EA840105F130000E18F078000659
:102F4000B17840EA0140717840EA012031780843C5
:102F500020F070409BE700BF4FF0FF3097E72DE96E
:102F6000F04705460E461746022E02D3A869B04226
:102F700002D84FF002088CE02878012804D00228FB
:102F800043D003287FD156E0B14609EB5909286A9E
:102F900000EB59212846FFF7C5FE8046B8F1000F27
:102FA00000D073E0C9F3080105F130000C1816F0E9
:102FB000010F04D0F9B2207861F31F1000E0384609
:102FC000207009F1010901202871286A00EB5921BC
:102FD0002846FFF7A7FE8046B8F1000F00D055E065
:102FE000C9F3080105F130000C1816F0010F02D0EA
:102FF000C7F3071007E0207800F0F000C7F30721BF
:1030000001F00F010843207040E0286A00EB162110
:103010002846FFF787FE8046B8F1000F00D035E064
:1030200040F2FF1000EA460105F130000C1827704D
:10303000380A60702AE0286A00EBD6112846FFF7AC
:1030400071FE8046B8F1000F00D01FE040F2FF1083
:1030500000EA860105F130000C18E0780006A1783E
:1030600040EA0140617840EA01202178084300F0FD
:10307000704007432770380A6070380CA070380E13
:10308000E07003E0FFE74FF0020800BF00BF01203F
:1030900028714046BDE8F0872DE9F04104460E4610
:1030A000022E02D3A069B04201D8022725E00027F2
:1030B0001FE031462046FFF7E0FE054605B91BE05C
:1030C000012D01D1022717E0681C01D1012713E06F
:1030D000002231462046FFF742FF074607B10BE0CA
:1030E0002069401C04D02069401C206101206071CF
:1030F0002E46A069B042DCD800BF3846BDE8F0815A
:103100002DE9F04704468946B9F1000F06D1E7687A
:1031100017B1A069B84211D801270FE049462046EF
:10312000FFF7ABFE0646022E02D20120BDE8F08773
:10313000A069B04201D93046F8E74F463D4600BF8E
:103140006D1CA069A84204D80225BD4201D9002007
:10315000ECE729462046FFF790FE064606B909E04F
:10316000701C01D0012E01D13046DFE7BD42E7D10E
:103170000020DBE700BF6FF0704229462046FFF7D2
:10318000EEFE8046B8F1000F08D1B9F1000F05D06E
:103190002A4649462046FFF7E2FE8046B8F1000F76
:1031A00009D1E5602069401C0DD02069401E2061D6
:1031B0000120607107E0B8F1010F02D14FF0FF303C
:1031C00000E0012005462846B0E72DE9F04104461D
:1031D0000E46E680A568012D03D020688069A842CC
:1031E00002D80220BDE8F0812DB9206800780328BC
:1031F00001D12068456A65B9E56020680089B04260
:1032000001DC0220EEE72068406A00EB1610206126
:1032100020E020688078070112E029462068FFF747
:103220002CFE0546681C01D10120DBE7022D03D3EB
:1032300020688069A84201D80220D3E7F01B86B23B
:10324000BE42EADAE56029462068FFF709FE00EB96
:10325000161020612068303006F00F0100EB41109D
:1032600060610020BEE72DE9F0410446884600BFBA
:10327000E088401C86B20EB1206910B90420BDE878
:10328000F08116F00F0F6ED12069401C2061E068BC
:1032900028B920680089B04265DC0420EFE7206887
:1032A0008078401E10EA161F5DD1E1682068FFF7A4
:1032B000E4FD0546012D01D80220E0E7681C01D19C
:1032C0000120DCE720688069A84246D8B8F1000FE9
:1032D00001D10420D3E7E1682068FFF711FF05461C
:1032E0000DB90720CBE7012D01D10220C7E7681CEB
:1032F00001D10120C3E700212068FFF713FD08B1C9
:103300000120BCE7216801F130004FF40072002178
:10331000FFF7E1FC29462068FFF7A2FD2168C8629B
:10332000002710E001202168087100212068FFF7C4
:10333000F9FC08B10120A2E72068C06A401C21689E
:10334000C862781CC7B220688078B842EADC20687E
:10335000C06AC01B2168C86200BFE56029462068BA
:10336000FFF77EFD2061E6802068303006F00F0117
:1033700000EB41106061002081E72DE9F047054630
:103380000C46207820F04000401E00EB800101EB4D
:10339000C00600274FF0010800BFFE48C05D205C5A
:1033A000FC49C95D2144497840EA0129B8F1000F80
:1033B00010D0484601F08AFB8046FF2E07D23146E6
:1033C000761C35F8110001F081FB404508D0002043
:1033D000BDE8F087A9F57F40FF3801D00020F7E76E
:1033E000781C07460D28D8D3207810F0400F07D05E
:1033F000B8F1000F04D035F8160008B10020E7E757
:103400000120E5E7F0B50346087800F03F00401ED4
:1034100000EB800707EBC0020025012600BFDD4856
:10342000405D085CDB4F7F5D0F447F7840EA0724F6
:103430004EB1FF2A01D30020F0BD26461046521C93
:1034400023F8104005E0A4F57F40FF3801D00020AC
:10345000F2E7681C05460D28E1D3087810F0400F0C
:1034600006D0FF2A01D30020E6E7002023F812004F
:103470000120E1E7F0B504461D464D730F27CF72DA
:1034800000270F738F76BC4681F81BC0571E07EBD1
:10349000870C0CEBC706002738463B4600BFA0F55B
:1034A0007F47FF3F03D03746761C34F81700DFF81C
:1034B000E4C21CF803C001F80C000712DFF8D4C204
:1034C0001CF803C08C448CF8017008B94FF6FF70EB
:1034D0005F1C3B460D2FE2D3A0F57F47FF3F02D094
:1034E00034F816700FB942F040020A70F0BD2DE9B1
:1034F000FC4707468A4690461C460B2251463846F2
:10350000FFF7DCFB052C0BDD00BF601000EBC431C6
:1035100038F8022B881884B2B8F800000028F4D1DB
:10352000072600BF2046E11704EB11710911A4EB37
:103530000111303101F0FF09B9F1390F03DD09F153
:10354000070000F0FF093046761E0DF80090204677
:10355000E11704EB1171C1F30F14002CE2D17E20AE
:103560000DF8060000250BE0785D812807DB785D0B
:10357000FE2804DC701EA84200D106E06D1C6D1C04
:10358000B54202D2785D2028EED100BF00BF082EE0
:1035900004D23046761C1DF8000000E020202946A9
:1035A0006D1C7854082DF2D3BDE8FC8730B5014678
:1035B00000200B2200BF431003EBC01411F8015B85
:1035C0006319D8B2531E1A00F5D130BD2DE9F0476A
:1035D000044600212046FFF7F8FD074617B138469C
:1035E000BDE8F0874FF0FF09CA4600BF2169206897
:1035F000FFF798FB074607B154E065692E780EB9CE
:1036000004274FE0E87A00F03F08E52E05D018F0D7
:10361000080F05D0B8F10F0F02D04FF0FF093AE0C4
:10362000B8F10F0F1CD1E069A0B316F0400F06D01F
:1036300095F80DA026F04006B146E08820844E455E
:103640000AD1687B504507D12946E069FFF795FE0E
:1036500010B1A9F1010000E0FF2000F0FF091AE01D
:10366000B9F1000F05D12846FFF7A0FF504500D162
:1036700018E04FF0FF094FF6FF702084A069C07A70
:1036800010F0010F07D10B222846A169FFF72DFB8F
:1036900000B907E0FFE700212046FFF7E4FD0746F9
:1036A000002FA3D000BF38469AE72DE9F047044623
:1036B0004FF0FF09CA4604274CE021692068FFF754
:1036C00031FB074607B148E0666935780DB9042734
:1036D00043E0F07A00F03F08E52D07D02E2D05D00D
:1036E00018F0080F05D0B8F10F0F02D04FF0FF0906
:1036F00029E0B8F10F0F1AD115F0400F06D096F857
:103700000DA025F04005A946E08820844D450AD14A
:10371000707B504507D13146E069FFF773FE10B169
:10372000A9F1010000E0FF2000F0FF090BE0B9F172
:10373000000F04D13046FFF739FF504502D04FF655
:10374000FF70208409E000212046FFF78CFD07462A
:1037500007B102E020690028AFD100BF0FB10020FF
:1037600020613846BDE8F0872DE9F04F85B004466A
:10377000D4F81880D4F81CB00C22414601A8FFF7F9
:103780009DFA00BF9DF80F0010F0010F2AD0002015
:1037900002E000003E4C000288F80B00E0610127C7
:1037A0000DE03B465A4601A94046FFF7A0FE2046E1
:1037B000FFF70CFF054605B103E0781C87B2642FC4
:1037C000EFDB00BF642F03D1072005B0BDE8F08F09
:1037D000042D01D02846F8E79DF80F0088F80B006B
:1037E000C4F81CB09DF80F0010F0020F0ED0002698
:1037F00001E0701C86B23BF816000028F9D106F1F2
:1038000019000D2190FBF1F086B200E001260021A5
:103810002046FFF7DAFC05460DB12846D5E7002023
:103820000746049000BF21692068FFF77BFA054630
:1038300005B119E0606990F80090B9F1E50F02D088
:10384000B9F1000F08D10FB9E0880490781C80B25C
:103850000746B04201D107E0002701212046FFF7CB
:1038600002FD0546002DDED000BF4DBB012E27DD39
:1038700020460499FFF7A9FC05460DBBA069FFF798
:1038800095FE0090701E86B200BF21692068FFF788
:1038900049FA054605B112E0F2B26169E069009BA0
:1038A000FFF7E8FD01202168087100212046FFF79D
:1038B000DAFC05461DB9701E80B20600E5D100BFD6
:1038C000D5B921692068FFF72DFA0546A5B9D4F8C6
:1038D00014A0202200215046FFF7FDF90B2250468C
:1038E000A169FFF7EBF9A069C07A00F018008AF827
:1038F0000C00012021680871284666E72DE9F34F86
:1039000083B0814604980068019002E00198401C51
:103910000190019800782F28F8D0019800785C2851
:10392000F4D0D9F81CA000252F4600BF38467F1CD4
:1039300001990C5C202C03DB2F2C01D05C2C00D1D6
:1039400032E0FF2D03D3062005B0BDE8F08FE4B2CE
:10395000812C13DBE0B2FE2810DC38467F1C019975
:103960000E5C402E01DB7E2E05DD802E01DBFE2E5F
:1039700001DD0620E8E706EB042084B201212046A1
:1039800001F06AF804460CB90620DDE7802C06DA5F
:103990002146FEA0FFF7BCF908B10620D4E728466F
:1039A0006D1C2AF81040C1E700BF0198C1190498A6
:1039B0000160202C01DA042000E00020804608E0AD
:1039C000681E3AF81040202C02D02E2C00D002E0C5
:1039D0006D1E002DF4D100BF0DB90620B4E7002004
:1039E0002AF815000B222021D9F81800FFF773F9E7
:1039F000002700E07F1C3AF817002028FAD03AF898
:103A000017002E28F6D00FB148F0030800E06D1E15
:103A100025B1681E3AF810002E28F8D1002006467D
:103A200002904FF0080B00BF38467F1C3AF8104058
:103A300004B963E0202C03D02E2C04D1AF4202D075
:103A400048F00308F0E70298584501D2AF4214D17C
:103A5000BBF10B0F02D148F003084FE0AF4201D099
:103A600048F00308AF4200D948E02F4608200290F2
:103A70004FF00B0BB006060ED6E7802C09DB204674
:103A800001F024F80021009000F0E6FF044648F021
:103A90000208FF2C11DDABF101000299884204D825
:103AA00048F00308CDF808B0BEE72212D9F8183064
:103AB0000298411C02911A5419E024B12146B6A083
:103AC000FFF726F918B15F2448F003080FE0412CF6
:103AD00004DB5A2C02DC46F0020608E0612C06DB0F
:103AE0007A2C04DC46F00106A4F1200084B2D9F857
:103AF00018300298411C02911C5495E700BFD9F878
:103B000018000078E52803D10520D9F818100870AE
:103B1000BBF1080F01D1B006060E06F00C000C2810
:103B200003D006F00300032801D148F0020818F082
:103B3000020F0BD106F00300012801D148F0100854
:103B400006F00C00042801D148F00808D9F8180044
:103B500080F80B800020F7E62DE9FC5F81460F46D8
:103B600007F10908D9F81000002851D0D9F81440FD
:103B7000207B0190002514E0665D202E00D112E02C
:103B8000052E00D1E526019810F0080F06D0412E31
:103B900004DB5A2E02DC06F12000C6B208F8016BE5
:103BA0006D1C082DE8D300BF207A202819D02E20C4
:103BB00008F8010B082511E0665D202E00D10FE00A
:103BC000019810F0100F06D0412E04DB5A2E02DCB3
:103BD00006F12000C6B208F8016B6D1C0B2DEBD36B
:103BE00000BFE07A3872E07F0106A07F41EA004121
:103BF000607F41EA0020217F08433860217E607E9B
:103C000041EA0020B880A17DE07D41EA0020F880F3
:103C1000002088F80000B869D0B3F869C0B3D7F8BD
:103C200018B00025D9F8100070B3B9F82000A0F53D
:103C30007F41FF3928D0D9F81C0000901CE00021FA
:103C4000504600F009FF8246BAF1000F01D100256D
:103C500019E0BAF1FF0F05DD4FEA2A2228466D1C54
:103C60000BF80020F869401EA84201D800250AE0A0
:103C700028466D1C0BF800A0009830F8021B5FEA84
:103C8000010A0090DBD100BF00200BF8050000BF47
:103C9000BDE8FC9F2DE9F3410446019800782F28E8
:103CA00003D0019800785C2802D10198401C019053
:103CB0000020A06001980078202807D2002120462B
:103CC000FFF783FA0646002060612FE000BF01A9DC
:103CD0002046FFF713FE064606B126E02046FFF712
:103CE00075FC0646A069C77A46B1042E00D01CE0D8
:103CF00000BF17F0040F00D1052616E017F0040FDF
:103D000000D012E06569E87A10F0100F01D10526A5
:103D10000BE0A97EE87E41EA00212A7D687D42EA27
:103D2000002041EA0040A060D1E700BF3046BDE876
:103D3000FC8170B504460D46607801232A4604F1E3
:103D40003001FEF767FF08B1032070BD94F82E1212
:103D500094F82F0241EA0020A0F52A41553901D0FC
:103D60000220F2E794F86900010694F8680041EA3D
:103D7000004194F8670041EA002094F86610084377
:103D800020F07F40064988420ED10BE0222A3A3CBF
:103D90003E3F7C7F000000002B2C3B3D5B5D000024
:103DA000464154000020D0E794F88500010694F8BD
:103DB000840041EA004194F8830041EA002094F82D
:103DC0008210084320F07F40F749884201D100204B
:103DD000BBE70120B9E72DE9F74F88B008980068E4
:103DE00001900198007830380790079809280AD880
:103DF000019840783A2806D10198801C01900899D2
:103E00000198086001E000200790079818B10B2086
:103E10000BB0BDE8F08FE549079851F820400998AC
:103E200004600CB90C20F3E7207878B16078FEF7D5
:103E3000EEFE804618F0010F08D10A9820B118F064
:103E4000040F01D00A20E3E70020E1E70020207002
:103E5000079860706078FEF7CDFE804618F0010F7D
:103E600001D00320D4E70A9820B118F0040F01D044
:103E70000A20CDE74FF0000B59462046FFF759FFC7
:103E8000054600BF012D21D14FF0000ABAF1000F05
:103E900003D0AAF1010000F0FF0A4FF4DF7000EB3D
:103EA0000A1104F130000F18387978B1F87A010658
:103EB000B87A41EA0041787A41EA0020397A40EA4A
:103EC000010B59462046FFF734FF0546032D01D16B
:103ED00001209DE70DB10D209AE73B20015D94F88C
:103EE0003C0041EA0020B0F5007F01D00D208FE7B3
:103EF0004620015D94F8470041EA0029B9F1000F1E
:103F00000ED194F85700010694F8560041EA00419A
:103F100094F8550041EA002094F8541040EA010951
:103F2000C4F81C904020065DE670012E03D0022EDE
:103F300001D00D206CE709FB06F93D20005D064627
:103F4000A07016B1701E304201D00D2060E74120F4
:103F5000015D94F8420041EA00202081207A10F0AF
:103F60000F0F01D00D2053E74320015D94F844006A
:103F700041EA00200690069870B994F853000106B3
:103F800094F8520041EA004194F8510041EA0020BF
:103F900094F85010084306903E20015D94F83F00CD
:103FA00041EA00200290029808B90D2030E70298FB
:103FB0004844218900EB11100590DDE9050181429B
:103FC00001D20D2024E7DDE90510401AA178B0FBED
:103FD000F1F00490049808B90D2019E7012540F686
:103FE000F6710498884200D302254FF6F6710498C2
:103FF000884200D303250498801CA061059858448A
:10400000A062029858442062032D16D1208908B17D
:104010000D20FDE694F85F00010694F85E0041EA89
:10402000004194F85D0041EA002094F85C100843D8
:104030006062A0698000039014E0208908B90D2017
:10404000E6E6206A48446062022D02D1A069400081
:1040500007E0207E00F00100A16901EB410100EBC7
:1040600051000390E169039800F2FF10B1EB502F6B
:1040700001D20D20CCE64FF0FF3020610020E0603F
:10408000032D5CD1607194F8601094F8610041EAEE
:104090000020584460616078012304F130016269B6
:1040A000FEF7B8FDF0BB94F82E1294F82F0241EA07
:1040B0000020A0F52A41553941D13320005D010689
:1040C0003220005D41EA00413120005D41EA0020DC
:1040D00094F8301008433649884230D194F81702DA
:1040E000010694F8160241EA004194F8150241EAEB
:1040F000002094F8141208432E4988421FD194F8E6
:104100001F02010694F81E0241EA004194F81D02C4
:1041100041EA002094F81C120843E06094F81B0266
:10412000010600E00BE094F81A0241EA004194F81D
:10413000190241EA002094F8181208432061257002
:104140001D480088401C80B21B490880E080002088
:10415000E062207100BF5BE670B504460D4624B1F5
:10416000207810B1E088A84201D0092070BD6078A5
:10417000FEF74DFD10F0010F01D00320F6E70020FF
:10418000F4E70246012A01DB0B207047074850F88C
:1041900022300BB10020187009B1002008700348CC
:1041A00040F822100020F0E74641540090000C2017
:1041B000525261417272416194000C202DE9F74323
:1041C000ADF50C7D054616460020286006F01F065A
:1041D00026F0010283A98DA8FFF7FDFD074680A800
:1041E0008990CDF828D227B983A88D99FFF752FD81
:1041F0000746889C0FB904B9062716F01C0F57D044
:104200004FB1042F03D183A8FFF7AEFA074646F05B
:104210000806889C09E0E07A10F0110F01D007270A
:1042200003E016F0040F00D00827002F3FD116F04E
:10423000080F3CD0FEF73FFD804684F80E804FEA21
:104240001821E1734FEA184121744FEA1861617433
:104250000020E072207700216177A177E177A17ECD
:10426000E07E41EA0021227D607D42EA002041EAB1
:1042700000490020A0760021E176207561750120BB
:1042800083990871B9F1000F11D08398D0F82C8070
:1042900049468398FEF700FF074647B9A9F1010098
:1042A0008399C86041468398FEF73CFD07460EE0BF
:1042B0006FB9E07A10F0100F01D0042707E016F074
:1042C000020F04D0E07A10F0010F00D0072747B9A1
:1042D00016F0080F01D046F020068398C06AE86106
:1042E0002C62F7B9AE71A17EE07E41EA0021227D09
:1042F000607D42EA002041EA00402861E07F01063B
:10430000A07F41EA0041607F41EA0020217F08430D
:10431000E8600020A860A861839828608398C0881E
:10432000A88038460DF50F7DBDE8F0832DE9FF4FDD
:1043300083B0044615469A46DDF810B00020CAF84E
:104340000000A1882068FFF707FF0290029818B1CB
:10435000029807B0BDE8F08FA07910F0800F01D06F
:104360000220F6E7A07910F0010F01D10720F0E755
:10437000D4E90210401A00900098854200D9009DAF
:10438000B4E02089C005C00D7ED120688078401E31
:10439000A16800EA512000F0FF09B9F1000F1DD11A
:1043A000A06810B92069019004E061692068FEF7F7
:1043B00064FD01900198022805D2A07940F08000A8
:1043C000A0710220C5E70198401C05D1A07940F0FA
:1043D0008000A0710120BCE70198606161692068DC
:1043E000FEF73EFD06462EB9A07940F08000A07190
:1043F0000220AEE74E444FEA5528B8F1000F2DD009
:1044000009EB080021688978884203D92068807800
:10441000A0EB090808F0FF032168487832465946A6
:10442000FEF7F8FB28B1A07940F08000A0710120D0
:104430008FE7A07910F0400F0DD0A069801B404598
:1044400009D2A169891B0BEB41204FF4007204F1E2
:104450002401FEF733FC4FEA48273DE0A069B04253
:1044600026D0A07910F0400F13D02168487801239E
:1044700004F12401A269FEF7F4FB30B1A07940F009
:104480008000A071012064E713E0A07920F04000D3
:10449000A071216848780123324604F12401FEF717
:1044A000B9FB28B1A07940F08000A071012050E74D
:1044B000A6612089C0F30800C0F50077AF4200D99B
:1044C0002F462089C0F3080204F1240011183A464F
:1044D0005846FEF7F3FB00BFBB44A0683844A06019
:1044E000DAF800003844CAF80000ED1B002D7FF414
:1044F00048AF00202DE72DE9FF4F83B00446154655
:104500009B46049801900020CBF80000A188206809
:10451000FFF722FE0290029818B1029807B0BDE89A
:10452000F08FA07910F0800F01D00220F6E7A0797B
:1045300010F0020F01D10720F0E7E0682844E1689D
:10454000884200D20025CCE02089C005C00D77D17B
:1045500020688078401EA16800EA512000F0FF0A20
:10456000BAF1000F2AD1A06858B9D4F81080B8F178
:10457000000F0BD100212068FEF7C2FD80462061AC
:1045800004E061692068FEF7BBFD8046B8F1000FCA
:1045900000D1A9E0B8F1010F05D1A07940F0800069
:1045A000A0710220BAE718F1010005D1A07940F00E
:1045B0008000A0710120B1E7C4F81480A07910F048
:1045C000400F12D021684878012304F12401A26928
:1045D000FEF747FB28B1A07940F08000A0710120D0
:1045E0009CE7A07920F04000A07161692068FEF787
:1045F00037FC06462EB9A07940F08000A071022059
:104600008CE756444FEA5529B9F1000F2FD00AEB39
:10461000090021688978884203D920688078A0EB56
:104620000A0909F0FF032168487832460199FEF72C
:1046300018FB30B1A07940F08000A07101206DE737
:104640002CE0A069801B48450ED2A069801B019A0E
:1046500002EB40214FF4007204F12400FEF72EFB20
:10466000A07920F04000A0714FEA49272DE0A06911
:10467000B04212D0D4E9020188420ED221684878B3
:104680000123324604F12401FEF7C4FA28B1A079CF
:1046900040F08000A071012040E7A6612089C0F3AE
:1046A0000800C0F50077AF4200D92F462189C1F339
:1046B000080204F1240150183A460199FEF7FEFA67
:1046C000A07940F04000A07100BF019838440190EB
:1046D000A0683844A060DBF800003844CBF8000044
:1046E000ED1B002D7FF430AF00BFD4E902018842FA
:1046F00001D9A068E060A07940F02000A0710020FE
:104700000CE72DE9F0410446A1882068FFF724FD5D
:104710000746002F4ED1A07910F0200F4AD0A07983
:1047200010F0400F0FD021684878012304F12401D4
:10473000A269FEF796FA10B10120BDE8F081A079D8
:1047400020F04000A071E1692068FEF7EBFA07460F
:10475000002F2FD1256AE87A40F02000E872207BF4
:104760002877A089010A6977E068010CA977E068D9
:10477000010EE977207CA876208A010AE976206973
:10478000000C28752069010E6975FEF794FA06463B
:10479000AE75310AE975310C2976310E6976A0794A
:1047A00020F02000A0710120216808712068FEF728
:1047B000F2FA07463846C0E770B504462046FFF7D0
:1047C000A0FF05460DB900202060284670BD2DE9E8
:1047D000F04704460E46A1882068FFF7BDFC8246DC
:1047E000BAF1000F02D05046BDE8F087A07910F072
:1047F000800F01D00220F7E7E068B04204D2A07930
:1048000010F0020F00D1E668D4F808904FF00008CD
:10481000C4F80880002E77D0206880784702B9F16C
:10482000000F11D0701EB0FBF7F1A9F10100B0FB31
:10483000F7F0814208D3A9F10100791E8843A060F6
:10484000A068361A656918E02569ADB900212068AD
:10485000FEF756FC0546012D05D1A07940F08000F9
:10486000A0710220C0E7681C05D1A07940F080004B
:10487000A0710120B8E725616561002D44D029E0D1
:10488000A07910F0020F07D029462068FEF738FC07
:10489000054635B93E461FE029462068FEF7EDFA89
:1048A0000546681C05D1A07940F08000A071012068
:1048B0009AE7012D03D920688069A84205D8A0791C
:1048C00040F08000A07102208EE76561A068384446
:1048D000A060F61BBE42D3D800BFA0683044A060E1
:1048E000F005C00D10D029462068FEF7B9FA8046C1
:1048F000B8F1000F06D1A07940F08000A07102202D
:1049000072E701E008EB56282089C005C00D2AD0C7
:10491000A069404527D0A07910F0400F12D021683F
:104920004878012304F12401A269FEF79AF928B11D
:10493000A07940F08000A071012055E7A07920F017
:104940004000A071216848780123424604F1240107
:10495000FEF760F928B1A07940F08000A071012035
:1049600042E7C4F81880D4E90201884205D9A0685A
:10497000E060A07940F02000A071504634E733B5E4
:10498000ADF5037D04460022214684A8FFF723FAF3
:1049900005465DBB80A8A061C4F81CD02046849960
:1049A000FFF778F90546F5B9606998B16069C07A92
:1049B00010F0100F0DD06069817EC07E41EA0021A9
:1049C0006069027D407D42EA002041EA0040A0602B
:1049D00000E005253DB92068C088A0800021204660
:1049E000FEF7F3FB0546042D00D1052528460DF5FD
:1049F000057D30BD70B5ADF5047D04460E46A18839
:104A00002068FFF7A9FB054615BB2EB900212046FB
:104A1000FEF7DBFB05461BE081A8A06101A8E06171
:104A20002046FEF742FE0546042D02D100202061FB
:104A300000256DB931462046FFF78EF8002120464B
:104A4000FEF711FC0546042D02D10020206100254F
:104A500028460DF5047D70BD2DE9F04102460F4654
:104A6000802A01DA10462FE01FB1244B45F2205670
:104A700002E0234B45F220560025102416E0A6EB59
:104A8000050C0CEBDC7805EB68014FEA410C33F8C0
:104A90001CC0944500D10BE04FEA410C33F81CC018
:104AA000944501DA0D4600E00E46641E002CE6D166
:104AB00000BF34B14FF0010C0CEB410C33F81CC0BB
:104AC00001E04FF0000C6046BDE8F0810246002195
:104AD00000E0491C0B4830F8110020B1094830F8BB
:104AE00011009042F5D1074830F8110018B106487E
:104AF00030F8110070471046FCE70000D0A001021A
:104B00004C4C000254F5020234F70202064C074DE9
:104B100006E0E06840F0010394E80700984710348D
:104B2000AC42F6D3FBF708FB14F9020234F9020297
:104B30000FB4054B10B503A9044A029800F017F80A
:104B400010BC5DF814FB00002315000298000C2037
:104B500002E008C8121F08C1002AFAD17047704746
:104B6000002001E001C1121F002AFBD170472DE98E
:104B7000F84F9946924688460546002759E0252871
:104B800001D0514623E0002315F8011F18462E29B5
:104B900015D115F8011F04232A290DD06FF02F021B
:104BA0002978A1F13004092C09D800EB800002EB30
:104BB000400008446D1CF3E758F8040B6D1C2A787C
:104BC00072B3632A08D0732A10D0514610464A4661
:104BD000904707F101072BE018F8042B8DF800200F
:104BE00000218DF801106E46012103E058F8046B96
:104BF0004FF0FF315A074FF0000401D409E0641C64
:104C000084420BDA8C42FADB325D002AF7D105E0F0
:104C1000641C8C42FCDB305D0028F9D1274405E0A0
:104C20000AE016F8010B51464A469047641EF8D236
:104C30006D1C28780028A2D13846BDE8F88F010302
:104C40000507090E10121416181C1E00A400E8A176
:104C5000A700ECA1A800A7A1B000E3A1B100C0A1EA
:104C6000B700A4A1D700C1A1E000A4A8E100A2A8B8
:104C7000E800A8A8E900A6A8EA00BAA8EC00ACA839
:104C8000ED00AAA8F200B0A8F300AEA8F700C2A1F8
:104C9000F900B4A8FA00B2A8FC00B9A80101A1A8C3
:104CA0001301A5A81B01A7A82B01A9A84401BDA811
:104CB0004801BEA84D01ADA86B01B1A8CE01A3A8C3
:104CC000D001ABA8D201AFA8D401B3A8D601B5A832
:104CD000D801B6A8DA01B7A8DC01B8A85102BBA870
:104CE0006102C0A8C702A6A1C902A5A1CA0240A824
:104CF000CB0241A8D90242A89103A1A69203A2A681
:104D00009303A3A69403A4A69503A5A69603A6A61B
:104D10009703A7A69803A8A69903A9A69A03AAA6EB
:104D20009B03ABA69C03ACA69D03ADA69E03AEA6BB
:104D30009F03AFA6A003B0A6A103B1A6A303B2A68A
:104D4000A403B3A6A503B4A6A603B5A6A703B6A657
:104D5000A803B7A6A903B8A6B103C1A6B203C2A609
:104D6000B303C3A6B403C4A6B503C5A6B603C6A6BB
:104D7000B703C7A6B803C8A6B903C9A6BA03CAA68B
:104D8000BB03CBA6BC03CCA6BD03CDA6BE03CEA65B
:104D9000BF03CFA6C003D0A6C103D1A6C303D2A62A
:104DA000C403D3A6C503D4A6C603D5A6C703D6A6F7
:104DB000C803D7A6C903D8A60104A7A71004A1A7B2
:104DC0001104A2A71204A3A71304A4A71404A5A75F
:104DD0001504A6A71604A8A71704A9A71804AAA72C
:104DE0001904ABA71A04ACA71B04ADA71C04AEA7FB
:104DF0001D04AFA71E04B0A71F04B1A72004B2A7CB
:104E00002104B3A72204B4A72304B5A72404B6A79A
:104E10002504B7A72604B8A72704B9A72804BAA76A
:104E20002904BBA72A04BCA72B04BDA72C04BEA73A
:104E30002D04BFA72E04C0A72F04C1A73004D1A7FB
:104E40003104D2A73204D3A73304D4A73404D5A79E
:104E50003504D6A73604D8A73704D9A73804DAA76B
:104E60003904DBA73A04DCA73B04DDA73C04DEA73A
:104E70003D04DFA73E04E0A73F04E1A74004E2A70A
:104E80004104E3A74204E4A74304E5A74404E6A7DA
:104E90004504E7A74604E8A74704E9A74804EAA7AA
:104EA0004904EBA74A04ECA74B04EDA74C04EEA77A
:104EB0004D04EFA74E04F0A74F04F1A75104D7A764
:104EC00010205CA9132043A81420AAA1152044A8EF
:104ED0001620ACA11820AEA11920AFA11C20B0A1B2
:104EE0001D20B1A1252045A82620ADA13020EBA191
:104EF0003220E4A13320E5A1352046A83B20F9A1CA
:104F0000AC2080000321E6A1052147A8092148A87B
:104F10001621EDA1212159A96021F1A26121F2A25E
:104F20006221F3A26321F4A26421F5A26521F6A215
:104F30006621F7A26721F8A26821F9A26921FAA2E5
:104F40006A21FBA26B21FCA27021A1A27121A2A265
:104F50007221A3A27321A4A27421A5A27521A6A2E5
:104F60007621A7A27721A8A27821A9A27921AAA2B5
:104F70009021FBA19121FCA19221FAA19321FDA1F5
:104F8000962149A897214AA898214BA899214CA875
:104F90000822CAA10F22C7A11122C6A115224DA81D
:104FA0001A22CCA11D22D8A11E22DEA11F224EA8AA
:104FB0002022CFA123224FA82522CEA12722C4A19F
:104FC0002822C5A12922C9A12A22C8A12B22D2A107
:104FD0002E22D3A13422E0A13522DFA13622C3A1A3
:104FE0003722CBA13D22D7A14822D6A14C22D5A160
:104FF000522250A86022D9A16122D4A16422DCA14E
:105000006522DDA1662251A8672252A86E22DAA18C
:105010006F22DBA1952292A89922D1A1A522CDA130
:10502000BF2253A81223D0A16024D9A26124DAA2FE
:105030006224DBA26324DCA26424DDA26524DEA258
:105040006624DFA26724E0A26824E1A26924E2A228
:105050007424C5A27524C6A27624C7A27724C8A248
:105060007824C9A27924CAA27A24CBA27B24CCA218
:105070007C24CDA27D24CEA27E24CFA27F24D0A2E8
:105080008024D1A28124D2A28224D3A28324D4A2B8
:105090008424D5A28524D6A28624D7A28724D8A288
:1050A0008824B1A28924B2A28A24B3A28B24B4A2F8
:1050B0008C24B5A28D24B6A28E24B7A28F24B8A2C8
:1050C0009024B9A29124BAA29224BBA29324BCA298
:1050D0009424BDA29524BEA29624BFA29724C0A268
:1050E0009824C1A29924C2A29A24C3A29B24C4A238
:1050F0000025A4A90125A5A90225A6A90325A7A9DC
:105100000425A8A90525A9A90625AAA90725ABA9AB
:105110000825ACA90925ADA90A25AEA90B25AFA97B
:105120000C25B0A90D25B1A90E25B2A90F25B3A94B
:105130001025B4A91125B5A91225B6A91325B7A91B
:105140001425B8A91525B9A91625BAA91725BBA9EB
:105150001825BCA91925BDA91A25BEA91B25BFA9BB
:105160001C25C0A91D25C1A91E25C2A91F25C3A98B
:105170002025C4A92125C5A92225C6A92325C7A95B
:105180002425C8A92525C9A92625CAA92725CBA92B
:105190002825CCA92925CDA92A25CEA92B25CFA9FB
:1051A0002C25D0A92D25D1A92E25D2A92F25D3A9CB
:1051B0003025D4A93125D5A93225D6A93325D7A99B
:1051C0003425D8A93525D9A93625DAA93725DBA96B
:1051D0003825DCA93925DDA93A25DEA93B25DFA93B
:1051E0003C25E0A93D25E1A93E25E2A93F25E3A90B
:1051F0004025E4A94125E5A94225E6A94325E7A9DB
:105200004425E8A94525E9A94625EAA94725EBA9AA
:105210004825ECA94925EDA94A25EEA94B25EFA97A
:10522000502554A8512555A8522556A8532557A8AE
:10523000542558A8552559A856255AA857255BA87E
:1052400058255CA859255DA85A255EA85B255FA84E
:105250005C2560A85D2561A85E2562A85F2563A81E
:10526000602564A8612565A8622566A8632567A8EE
:10527000642568A8652569A866256AA867256BA8BE
:1052800068256CA869256DA86A256EA86B256FA88E
:105290006C2570A86D2571A86E2572A86F2573A85E
:1052A000702574A8712575A8722576A8732577A82E
:1052B000812578A8822579A883257AA884257BA8CA
:1052C00085257CA886257DA887257EA8882580A899
:1052D000892581A88A2582A88B2583A88C2584A866
:1052E0008D2585A88E2586A88F2587A8932588A833
:1052F000942589A895258AA8A025F6A1A125F5A120
:10530000B225F8A1B325F7A1BC258BA8BD258CA893
:10531000C625F4A1C725F3A1CB25F0A1CE25F2A186
:10532000CF25F1A1E2258DA8E3258EA8E4258FA83D
:10533000E52590A80526EFA10626EEA1092691A84D
:105340004026E2A14226E1A10030A1A10130A2A1A4
:105350000230A3A10330A8A10530A9A1063065A998
:10536000073096A90830B4A10930B5A10A30B6A11A
:105370000B30B7A10C30B8A10D30B9A10E30BAA1D5
:105380000F30BBA11030BEA11130BFA1123093A8C5
:105390001330FEA11430B2A11530B3A11630BCA158
:1053A0001730BDA11D3094A81E3095A8213040A90A
:1053B000223041A9233042A9243043A9253044A9F1
:1053C000263045A9273046A9283047A9293048A9C1
:1053D0004130A1A44230A2A44330A3A44430A4A4E9
:1053E0004530A5A44630A6A44730A7A44830A8A4B9
:1053F0004930A9A44A30AAA44B30ABA44C30ACA489
:105400004D30ADA44E30AEA44F30AFA45030B0A458
:105410005130B1A45230B2A45330B3A45430B4A428
:105420005530B5A45630B6A45730B7A45830B8A4F8
:105430005930B9A45A30BAA45B30BBA45C30BCA4C8
:105440005D30BDA45E30BEA45F30BFA46030C0A498
:105450006130C1A46230C2A46330C3A46430C4A468
:105460006530C5A46630C6A46730C7A46830C8A438
:105470006930C9A46A30CAA46B30CBA46C30CCA408
:105480006D30CDA46E30CEA46F30CFA47030D0A4D8
:105490007130D1A47230D2A47330D3A47430D4A4A8
:1054A0007530D5A47630D6A47730D7A47830D8A478
:1054B0007930D9A47A30DAA47B30DBA47C30DCA448
:1054C0007D30DDA47E30DEA47F30DFA48030E0A418
:1054D0008130E1A48230E2A48330E3A48430E4A4E8
:1054E0008530E5A48630E6A48730E7A48830E8A4B8
:1054F0008930E9A48A30EAA48B30EBA48C30ECA488
:105500008D30EDA48E30EEA48F30EFA49030F0A457
:105510009130F1A49230F2A49330F3A49B3061A9AE
:105520009C3062A99D3066A99E3067A9A130A1A5D3
:10553000A230A2A5A330A3A5A430A4A5A530A5A5FB
:10554000A630A6A5A730A7A5A830A8A5A930A9A5CB
:10555000AA30AAA5AB30ABA5AC30ACA5AD30ADA59B
:10556000AE30AEA5AF30AFA5B030B0A5B130B1A56B
:10557000B230B2A5B330B3A5B430B4A5B530B5A53B
:10558000B630B6A5B730B7A5B830B8A5B930B9A50B
:10559000BA30BAA5BB30BBA5BC30BCA5BD30BDA5DB
:1055A000BE30BEA5BF30BFA5C030C0A5C130C1A5AB
:1055B000C230C2A5C330C3A5C430C4A5C530C5A57B
:1055C000C630C6A5C730C7A5C830C8A5C930C9A54B
:1055D000CA30CAA5CB30CBA5CC30CCA5CD30CDA51B
:1055E000CE30CEA5CF30CFA5D030D0A5D130D1A5EB
:1055F000D230D2A5D330D3A5D430D4A5D530D5A5BB
:10560000D630D6A5D730D7A5D830D8A5D930D9A58A
:10561000DA30DAA5DB30DBA5DC30DCA5DD30DDA55A
:10562000DE30DEA5DF30DFA5E030E0A5E130E1A52A
:10563000E230E2A5E330E3A5E430E4A5E530E5A5FA
:10564000E630E6A5E730E7A5E830E8A5E930E9A5CA
:10565000EA30EAA5EB30EBA5EC30ECA5ED30EDA59A
:10566000EE30EEA5EF30EFA5F030F0A5F130F1A56A
:10567000F230F2A5F330F3A5F430F4A5F530F5A53A
:10568000F630F6A5FC3060A9FD3063A9FE3064A9B0
:105690000531C5A80631C6A80731C7A80831C8A872
:1056A0000931C9A80A31CAA80B31CBA80C31CCA842
:1056B0000D31CDA80E31CEA80F31CFA81031D0A812
:1056C0001131D1A81231D2A81331D3A81431D4A8E2
:1056D0001531D5A81631D6A81731D7A81831D8A8B2
:1056E0001931D9A81A31DAA81B31DBA81C31DCA882
:1056F0001D31DDA81E31DEA81F31DFA82031E0A852
:105700002131E1A82231E2A82331E3A82431E4A821
:105710002531E5A82631E6A82731E7A82831E8A8F1
:105720002931E9A82032E5A22132E6A22232E7A2FD
:105730002332E8A22432E9A22532EAA22632EBA2E1
:105740002732ECA22832EDA22932EEA231325AA938
:10575000A33249A98E334AA98F334BA99C334CA954
:105760009D334DA99E334EA9A1334FA9C43350A9EF
:10577000CE3351A9D13352A9D23353A9D53354A929
:10578000004EBBD2014EA1B6024E4081034EDFC691
:10579000044E4181054E4281064E4381074EF2CDB3
:1057A000084EC9D5094EFDC80A4ECFC90B4EC2CF0F
:1057B0000C4EA2D80D4EBBB20E4EEBD30F4E448111
:1057C000104EA4D8114EF3B3124E4581134EA8D7F4
:1057D000144ED2C7154EA7D8164EC0CA174E4681D2
:1057E000184EF0C7194EFBB11A4EB5D21B4ED4B4A9
:1057F0001C4EABB61D4EBFCB1E4EA9D81F4E4781C7
:10580000204E4881214E4981224EAAB6234E4A811C
:10581000244EBDC1254ECFD1264E4B81274EA5C962
:10582000284EADD8294E4C812A4EF6B82B4EBED10B
:105830002C4EDCE32D4ED0D62E4E4D812F4E4E8178
:10584000304EE1B7314E4F81324EAEB4334E5081BF
:10585000344ED9C1354E5181364EBCD8374E528167
:10586000384EE8CD394EA4B53A4EAACE3B4EF7D6C7
:105870003C4E53813D4EF6C03E4ED9BE3F4EAFD852
:10588000404E5481414E5581424E5681434ECBC4C9
:10589000444E5781454EC3BE464E5881474EB1D8FF
:1058A000484EB4C3494EE5D24A4E59814B4EAED60E
:1058B0004C4EDACE4D4EA7D54E4EF5BA4F4EA6B74A
:1058C000504ED6C0514E5A81524EB9C6534ED2C5D3
:1058D000544EC7C7554E5B81564ED4B9574E5C8166
:1058E000584ECBB3594ED2D25A4E5D815B4E5E813B
:1058F0005C4EBFD85D4EC5BE5E4EF2C65F4EB2D2A4
:10590000604EB0CF614EE7CF624E5F81634E6081E3
:10591000644E6181654E6281664EE9CA674E63815D
:10592000684E6481694EC0D86A4E65816B4E66814F
:105930006C4E67816D4E68816E4E69816F4E6A81D3
:10594000704EF2C2714ED2C2724E6B81734EE9C874
:10595000744E6C81754E6D81764E6E81774E6F817F
:10596000784E7081794E71817A4E72817B4E73814F
:105970007C4E74817D4E75817E4EACC77F4E7681A4
:10598000804E7781814E7881824E7981834E7A81F3
:10599000844E7B81854E7C81864ECBC1874E7D8136
:1059A000884EE8D3894EF9D58A4E7E818B4EC2CA85
:1059B0008C4EFEB68D4EA1D88E4EDAD38F4EF7BFE9
:1059C000904E8081914EC6D4924EA5BB934EC1D8C5
:1059D000944EE5CE954EAEBE964E8181974E828115
:1059E000984EA8D8994E83819A4EC7D19B4EA9D084
:1059F0009C4E84819D4E85819E4E86819F4EBDD852
:105A0000A04EEFD9A14EF6CDA24EBABFA34E8781CC
:105A1000A44EBBBDA54EA5BAA64EE0D2A74EFAB283
:105A2000A84EE0BAA94EB6C4AA4E8881AB4EEDCFBF
:105A3000AC4EA9BEAD4EA4CDAE4EC1C1AF4E898114
:105A4000B04E8A81B14E8B81B24ED7C7B34EF1D9D9
:105A5000B44E8C81B54EF4D9B64E8D81B74E8E8141
:105A6000B84E8F81B94E9081BA4ECBC8BB4EE9D8A3
:105A7000BC4E9181BD4E9281BE4E9381BF4EDAD213
:105A8000C04EB2CAC14ECAC8C24EECD8C34EEAD844
:105A9000C44EC6D8C54EF6BDC64ECDC6C74EF0B331
:105AA000C84E9481C94EEBD8CA4EF1BDCB4EE9BD6C
:105AB000CC4E9581CD4ED4C8CE4ED3B4CF4E968128
:105AC000D04E9781D14ED8C2D24E9881D34ED6B205
:105AD000D44ED0D7D54ECBCAD64EFBCBD74ECCD595
